:020000040000FA
:020000000528D1
:040002000034003492
:08000800072819200D28200033
:100010009119892020009111090020002118112830
:100020000D28200021100C1C17280C100D280C1472
:020030000D2899
:0E00320021007A3099002A009A012100151051
:100040009510151195151512951215179517200075
:100050008B110B120B178B17210008309100210018
:1000600092012100930121009401200091012000C0
:100070009201200093012000940122009D019C0127
:1000800020008C0122008C01210000308C00250012
:100090008C0123008C0126008C0127000030910088
:1000A0002700920120008D0122008D012100FF30E8
:1000B0008D0025008D0123008D0126008D01270074
:1000C0000030940027000030950027008D012000AB
:1000D0008E0122008E012100FF308E0025008E014E
:1000E00023008E0126008E0124000230920024009D
:1000F0001630950095162400803096002400970154
:100100002400C030940020000B10270093010B1036
:020110000800E5
:0E011200240011082400941E08002000A00004
:04012000211408009E
:020000040001F9
:02000E00A40943
:02001000FF1ED1
:00000001FF
