:020000040000FA
:020000000528D1
:040002000034003492
:0800080007281820172820002A
:100010008D18E828DF2820000D1987288D19B228AF
:10002000A028270096010B102000111009001728A6
:100030002100EA3099002A009A012100151095103C
:1000400015119515151295121517951720008B157A
:100050000B120B178B172100013091002100920128
:1000600021009301210094012000910120009201C0
:10007000200093012000940121000E1525000C3072
:1000800093002500133091002000A8302000990132
:1000900020009C01200019309B0022009D019C0142
:1000A00020008C0122008C012100FF308C002500F3
:1000B0008C0123008C0126008C0120008D01220080
:1000C0008D012100FF308D0025008D0123008D0161
:1000D00026008D0127000F30940027000E30950078
:1000E00027008D0120008E0122008E0121000030AA
:1000F0008E0025008E0123008E0126008E010B103C
:0E0100002000181420001C1521000E15080008
:02010E002000CF
:100110000D1C9A2821000E198E2892280E112000FD
:100120008E1596280E1520008E1196281110111C80
:100130009728872821000E1D0E1520008E111128EA
:100140002700161C112820000D1C9A2821000E11D2
:1001500020008E15960197011110111CAD2820006A
:100160008E119A282700161C112820000D1C9A2891
:1001700021000E1120008E15960197011110111CFF
:10018000BF2821000E1520008E111110111CC62849
:1001900021000E1120008E151110111CCD282100F8
:1001A0000E1520008E111110111CD42821000E11E3
:1001B00020008E151110111CDB288E119A282500A5
:1001C00013309100200019309B0020009A010B2869
:1001D00025000D309100200011309B0020009A0175
:0201E0000B28EA
:020000040001F9
:02000E00A40943
:02001000FF1FD0
:00000001FF
