:020000040000FA
:020000000528D1
:040002000034003492
:0800080007281C201B28200022
:100010008D18C428BB2820001118892820000D192C
:1000200090288D19B3289B282700960120001110D5
:080030000E100B1009001B2843
:080038002100EA3099002A00C2
:100040009A0121001510951015119515151295128C
:100050001517951720000B108B100B118B150B1219
:100060000B178B1721000130910021009201210014
:1000700093012100940120009101200092012000B1
:1000800093012000940121000E1525000C309300EF
:100090002500133091002000A83020009901200095
:1000A0009C01200019309B0022009D019C01200032
:1000B0008C0122008C012100FF308C0025008C0176
:1000C00023008C0126008C0120008D0122008D016F
:1000D0002100FF308D0025008D0123008D012600B9
:1000E0008D0127001F30950020008E0122008E0117
:1000F000210000308E0025008E0123008E01260095
:100100008E0127008C010B102000181420001C15F4
:020110000800E5
:0E01120020000E142318B1282118BA280E2838
:1001200020000D1C972821000E190E111428210003
:100130000E1D0E1514282700161C972820000D1CD4
:10014000972821000E112000181020009601970119
:100150001110200018142000111CAC2821000E15CD
:100160001428231097282700161C142820000D1C83
:1001700097289728972825001330910020001930E0
:100180009B0020009A010B2825000D3091002000D3
:0A01900011309B0020009A010B289B
:020000040001F9
:02000E00A40943
:02001000FF1FD0
:00000001FF
