:020000040000FA
:020000000528D1
:040002000034003492
:0800080007281C201B2827001B
:10001000961C0E2820008D18E228D92820000D19E2
:1000200092288D19B1289D282700960120001110D3
:080030000E100B1009001B2843
:080038002100EA3099002A00C2
:100040009A0121001510951015119515151295128C
:100050001517951720000B108B100B118B150B1219
:100060000B178B1721000130910021009201210014
:1000700093012100940120009101200092012000B1
:1000800093012000940121000E1525000C309300EF
:100090002500133091002000A83020009901200095
:1000A0009C01200019309B0022009D019C01200032
:1000B0008C0122008C012100FF308C0025008C0176
:1000C00023008C0126008C0120008D0122008D016F
:1000D0002100FF308D0025008D0123008D012600B9
:1000E0008D0127000F30950027000F309400270066
:1000F0000E309500270000308D0020008E01220078
:100100008E01210000308E0025008E0123008E011B
:1001100026008E0127008C010B10200018142000EF
:040120001C150800A2
:0C01240020000D1C992821000E190E115E
:10013000142821000E1D0E1514282700161C142843
:1001400020000D1C992821000E1120008E15200082
:100150009601970120001110111CAC2820008E116F
:1001600099282700161C142820000D1C992821000E
:100170000E1120009601970120001110111CBE28BD
:1001800021000E1520001110111CC42821000E1191
:1001900020001110111CCA2821000E15200011107A
:1001A000111CD02821000E1120001110111CD6287E
:1001B0009928250013309100200019309B00200061
:1001C0009A010E2825000D309100200011309B006F
:0601D00020009A010E2838
:020000040001F9
:02000E00A40943
:02001000FF1FD0
:00000001FF
