:020000040000FA
:020000000528D1
:040002000034003492
:08000800072811201028200038
:10001000911A99209118FA2020009112911009004C
:020020001028A6
:0E0022002100623099002A009A012100151079
:100030009510151195151512951215179517200085
:100040008B110B120B178B1721002230910021000E
:1000500092012100930121009401200091012000D0
:100060009201200093012000940121000E1525002B
:100070003C30930025000B30910021008E142500A8
:100080003C309A0025000B3098002000883020007A
:100090009901200003309C0020002F309B0022009B
:1000A00006309D009C0120008C0122008C01210063
:1000B00000308C0025008C0123008C0126008C016F
:1000C00020008D0122008D012100FF308D002500D0
:1000D0008D0123008D0126008D012700940127004A
:1000E000950127008D0120008E0122008E01210044
:1000F00000308E0025008E0123008E0126008E0127
:1001000023009C0123007C309B0023009F012300DF
:1001100004309E00230080309D001D1620001C1519
:0A01200023009E1620009112080033
:06012A002300AA309A0038
:100130000800230019089A002000AC008C1FA22898
:100140008C13A3288C172118F728EC28A001A101F3
:10015000A201A30125000B30910025000B3098006F
:10016000080020000C148C100C118C1125000F308D
:100170009100250007309800080020000C108C1416
:100180000C118C1125000730910025000F309800CC
:10019000080020000C108C100C158C112500073065
:1001A0009100250007309800080020000C108C10EA
:1001B0000C118C1525000F30910025000F30980090
:1001C000080020002D1CA6280C1EE9280C122D105A
:1001D000A6280C162D10A628200021142C1FE1287B
:1001E0002C1AD528AC1CC9282C1DBD28B1282000EC
:1001F000241408002000241CFF28241008002D14BB
:02020000A6282E
:020000040001F9
:02000E00A40943
:02001000FF1FD0
:00000001FF
