:020000040000FA
:020000000528D1
:040002000034003492
:08000800072811201028200038
:10001000911A9A289118962820009112911009009F
:020020001028A6
:0E0022002100623099002A009A012100151079
:100030009510151195151512951215179517200085
:100040008B110B120B178B1721002230910021000E
:1000500092012100930121009401200091012000D0
:100060009201200093012000940121000E1525002B
:100070003C30930025000B30910021008E142500A8
:100080003C309A0025000B3098002000883020007A
:100090009901200003309C0020002F309B0022009B
:1000A00006309D009C0120008C0122008C01210063
:1000B00000308C0025008C0123008C0126008C016F
:1000C00020008D0122008D012100FF308D002500D0
:1000D0008D0123008D0126008D012700940127004A
:1000E000950127008D0120008E0122008E01210044
:1000F00000308E0025008E0123008E0126008E0127
:1001000023009C0123004A309B0023009F01230011
:1001100004309E0023009D0120001C1523009E1624
:0C01200023001D169D17200091120800FE
:04012C002300AA30D2
:100130009A000C28230019082000AC00211804297B
:100140002018F828E528A001A101A201A30125009B
:100150000B30910025000B3098000C2820000C1467
:100160008C100C118C1125000F30910025000730E8
:1001700098000C2820000C108C140C118C112500F8
:100180000730910025000F3098000C2820000C103B
:100190008C100C158C1125000730910025000730BC
:1001A00098000C2820000C108C100C118C152500C8
:1001B0000F30910025000F3098000C2820000C1EF5
:1001C000E3280C12A3280C16A3282000AC1BA3289C
:1001D0002C1BA328AC1EA3282C1AA328AC19A328D7
:1001E0002C19A328AC18A3282C1CA32820140C28F5
:1001F000200021142C1BFD28DE282C1AD228AC1933
:10020000C6282C19AE28BA28200024140C28200057
:08021000241CA32824100C2873
:020000040001F9
:02000E00A40943
:02001000FF1FD0
:00000001FF
