:020000040000FA
:020000000528D1
:040002000034003492
:08000800072817201028200032
:10001000911A9920911895282000911291100900A9
:0E00200023001D191428102820000C1510288C
:02002E002100AF
:100030003A3099002A009A012100151095101511E7
:100040009515151295121517951720008B110B1287
:100050000B178B1721002230910021009201210003
:1000600093012100940120009101200092012000C1
:1000700093012000940121000E1525003C309300CF
:1000800025000B3091002000A830200099012000AD
:1000900002309C0020009D309B00220006309D0015
:1000A0009C0120008C0122008C01210000308C007A
:1000B00025008C0123008C0126008C0120008D017D
:1000C00022008D012100FF308D0025008D012300CD
:1000D0008D0126008D01270094012700950127003E
:1000E0008D0120008E0122008E01210000308E0043
:1000F00025008E0123008E0126008E0123009C0125
:1001000023004A309B00230008309F002300043066
:100110009E0023009D0120001C1523009E16230035
:0A0120001D169D1720009112080023
:06012A002300AA309A0038
:100130000C28230019082000AC008C152818DE2894
:1001400027180B29261808292518052924180229FB
:100150002318FF282218F9282118F6282018F32838
:10016000DF28A001A101A201A301A401A501A6010C
:10017000A701A801A901AA01AB010C1608002000E3
:100180000C148C100C118C11080020000C108C1415
:100190000C118C11080020000C108C100C158C1107
:1001A000080020000C108C100C118C150800200089
:1001B0000C1EDC280C1208000C160800B1282000C8
:1001C000AC00AC1FB1282C1BB128AC1EB1282C1AD6
:1001D000B128AC1DB1282C19B128AC1CB1282C18A1
:1001E000B128201408002000211408002000221447
:1001F0000800200023142C19BF28C528080020005F
:1002000024140800200025140800200026140800EB
:0C0210002000271408002000281408001B
:020000040001F9
:02000E00A40943
:02001000FF1FD0
:00000001FF
