:020000040000FA
:020000000528D1
:040002000034003492
:08000800072814201328200032
:10001000911A11281118032120009112911011102A
:0800200009009E200C281328A2
:080028002100623099002A005A
:100030009A0121001510951015119515151295129C
:100040001517951720008B110B120B178B1721001A
:10005000223091002100920121009301210094019E
:1000600020009101200092012000930120009401C2
:1000700021000E1525003C30930025000B30910027
:1000800021008E1425003C309A0025000B3098008A
:100090002000883020009901200003309C002000BF
:1000A0009B309B00220006309D009C0120008C01AB
:1000B00022008C01210000308C0025008C012300DF
:1000C0008C0126008C0120008D0122008D01210071
:1000D000FF308D0025008D0123008D0126008D014C
:1000E000270094012700950127008D0120008E0133
:1000F00022008E01210009308E0025008E01230090
:100100008E0126008E0123009C0123007C309B0081
:1001100023009F01230004309E00230080309D00B7
:100120001D1620001C152000181423009E16200008
:040130009112080020
:0C0134002300AA309A00080023001908DC
:100140009A002000AC008C1FA7288C13A8288C17BD
:1001500021180029F528A001A101A201A3010C107A
:100160008C100C118C1125000B30910025000B30E8
:100170009800080020000C148C100C118C11250024
:100180000F309100250007309800080020000C1067
:100190008C140C118C1125000730910025000F30B4
:1001A0009800080020000C108C100C158C112500F4
:1001B00007309100250007309800080020000C103F
:1001C0008C100C118C1525000F30910025000F307C
:1001D0009800080020002D1CAB288E1EF2288E12DD
:1001E0002D10AB288E162D10AB28200021142C1FAB
:1001F000EA282C1ADE28AC1CD2282C1DC628BA28C6
:100200002000241408002000241C082924100800C1
:040210002D14AB28D6
:020000040001F9
:02000E00A40943
:02001000FF1FD0
:00000001FF
