:020000040000FA
:020000000528D1
:040002000034003492
:0800080007281F201E2820001C
:10001000201C0D281118D428182820000D18A228FB
:100020008D18AC280D19B6288D19C0280D1ACA28AC
:0E003000270096010B102000111009001E2859
:02003E0021009F
:10004000EA3099002A009A01210015109510151127
:100050009515151295121517951720008B150B1273
:100060000B178B1721000130910021009201210014
:1000700093012100940120009101200092012000B1
:1000800093012000940121000E1525000C309300EF
:1000900025000D3091002000A8302000990120009B
:1000A00000309C00200019309B00220006309D008B
:1000B0009C0120008C0122008C01210000308C006A
:1000C00025008C0123008C0126008C0120008D016D
:1000D00022008D012100FB308D0025008D012300C1
:1000E0008D0126008D0127001F3094002700950107
:1000F00027008D0120008E0122008E01210000309A
:100100008E0025008E0123008E0126008E01230023
:100110009C01230019309B0023009F0123009E01B6
:1001200023009D0120001C152000181423009E169A
:0C01300023001D169D17200091120800EE
:04013C00230021304B
:100140009A0008009E2023009E1CA428230046300D
:100150009A002000201418289E2023009E1CAE2800
:10016000230042309A002000201418289E202300EB
:100170009E1CB82823004C309A0020002014182818
:100180009E2023009E1CC228230052309A0020008B
:10019000201418289E2023009E1CCC2823003E30CB
:1001A0009A002000201418280D18DD288D18DD284D
:1001B0000D19DD288D19DD2818289E2023009E1C8E
:0E01C000DF28230058309A0020002010182855
:020000040001F9
:02000E00A40943
:02001000FF1FD0
:00000001FF
