:020000040000FA
:020000000528D1
:040002000034003492
:08000800072821202028200018
:10001000201C0F282118D9289118CA281A28200036
:100020000D18A6288D18AD280D19B4288D19BB28D8
:100030000D1AC228270096010B102000911009000C
:02004000202876
:0E0042002100EA3099002A009A0121001510D1
:100050009510151195151512951215179517200065
:100060008B150B120B178B1721000130910021000B
:1000700092012100930121009401200091012000B0
:100080009201200093012000940121000E1525000B
:100090000C30930025000D3091002000A830200086
:1000A0009901200000309C00200019309B002200A4
:1000B00006309D009C0120008C0122008C01210053
:1000C00000308C0025008C0123008C0126008C015F
:1000D00020008D0122008D012100FB308D002500C4
:1000E0008D0123008D0126008D0127003F309400F3
:1000F0002700950127008D0120008E0122008E012E
:10010000210000308E0025008E0123008E01260084
:100110008E0123009C012300F9309B0023009F01E6
:10012000230004309E0023009D0120001C152000A8
:10013000181423009E1623001D169D1720009112EF
:04014000A001080012
:0C014400230021309A0008002300463000
:100150009A002000A10020141A28230042309A009F
:100160002000A10020141A2823004C309A002000FF
:10017000A10020141A28230052309A002000A10068
:1001800020141A2823001E309A002000A1002014F9
:1001900021141A280D18D4288D18D4280D19D42804
:1001A0008D19D42820101A282000210823009A0035
:0C01B0001A280D1A1A28211020101A28F5
:020000040001F9
:02000E00A4014B
:02001000FF1FD0
:00000001FF
